{
  "address": "0x7B2D8b120a24eCBf23da1b9CA6c80E99f187BA55",
  "abi": [
    {
      "inputs": [
        {
          "internalType": "address",
          "name": "_layerZeroEndpoint",
          "type": "address"
        },
        {
          "internalType": "uint16",
          "name": "_aptosChainId",
          "type": "uint16"
        }
      ],
      "stateMutability": "nonpayable",
      "type": "constructor"
    },
    {
      "anonymous": false,
      "inputs": [
        {
          "indexed": false,
          "internalType": "bool",
          "name": "enabled",
          "type": "bool"
        },
        {
          "indexed": false,
          "internalType": "uint256",
          "name": "unlockTime",
          "type": "uint256"
        }
      ],
      "name": "EnableEmergencyWithdraw",
      "type": "event"
    },
    {
      "anonymous": false,
      "inputs": [
        {
          "indexed": false,
          "internalType": "uint16",
          "name": "_srcChainId",
          "type": "uint16"
        },
        {
          "indexed": false,
          "internalType": "bytes",
          "name": "_srcAddress",
          "type": "bytes"
        },
        {
          "indexed": false,
          "internalType": "uint64",
          "name": "_nonce",
          "type": "uint64"
        },
        {
          "indexed": false,
          "internalType": "bytes",
          "name": "_payload",
          "type": "bytes"
        },
        {
          "indexed": false,
          "internalType": "bytes",
          "name": "_reason",
          "type": "bytes"
        }
      ],
      "name": "MessageFailed",
      "type": "event"
    },
    {
      "anonymous": false,
      "inputs": [
        {
          "indexed": true,
          "internalType": "address",
          "name": "previousOwner",
          "type": "address"
        },
        {
          "indexed": true,
          "internalType": "address",
          "name": "newOwner",
          "type": "address"
        }
      ],
      "name": "OwnershipTransferred",
      "type": "event"
    },
    {
      "anonymous": false,
      "inputs": [
        {
          "indexed": true,
          "internalType": "address",
          "name": "token",
          "type": "address"
        },
        {
          "indexed": true,
          "internalType": "address",
          "name": "to",
          "type": "address"
        },
        {
          "indexed": false,
          "internalType": "uint256",
          "name": "amountLD",
          "type": "uint256"
        }
      ],
      "name": "Receive",
      "type": "event"
    },
    {
      "anonymous": false,
      "inputs": [
        {
          "indexed": false,
          "internalType": "address",
          "name": "token",
          "type": "address"
        }
      ],
      "name": "RegisterToken",
      "type": "event"
    },
    {
      "anonymous": false,
      "inputs": [
        {
          "indexed": false,
          "internalType": "uint16",
          "name": "_srcChainId",
          "type": "uint16"
        },
        {
          "indexed": false,
          "internalType": "bytes",
          "name": "_srcAddress",
          "type": "bytes"
        },
        {
          "indexed": false,
          "internalType": "uint64",
          "name": "_nonce",
          "type": "uint64"
        },
        {
          "indexed": false,
          "internalType": "bytes32",
          "name": "_payloadHash",
          "type": "bytes32"
        }
      ],
      "name": "RetryMessageSuccess",
      "type": "event"
    },
    {
      "anonymous": false,
      "inputs": [
        {
          "indexed": true,
          "internalType": "address",
          "name": "token",
          "type": "address"
        },
        {
          "indexed": true,
          "internalType": "address",
          "name": "from",
          "type": "address"
        },
        {
          "indexed": true,
          "internalType": "bytes32",
          "name": "to",
          "type": "bytes32"
        },
        {
          "indexed": false,
          "internalType": "uint256",
          "name": "amountLD",
          "type": "uint256"
        }
      ],
      "name": "Send",
      "type": "event"
    },
    {
      "anonymous": false,
      "inputs": [
        {
          "indexed": false,
          "internalType": "uint16",
          "name": "aptosChainId",
          "type": "uint16"
        }
      ],
      "name": "SetAptosChainId",
      "type": "event"
    },
    {
      "anonymous": false,
      "inputs": [
        {
          "indexed": false,
          "internalType": "uint256",
          "name": "bridgeFeeBP",
          "type": "uint256"
        }
      ],
      "name": "SetBridgeBP",
      "type": "event"
    },
    {
      "anonymous": false,
      "inputs": [
        {
          "indexed": false,
          "internalType": "bool",
          "name": "paused",
          "type": "bool"
        }
      ],
      "name": "SetGlobalPause",
      "type": "event"
    },
    {
      "anonymous": false,
      "inputs": [
        {
          "indexed": false,
          "internalType": "uint16",
          "name": "localChainId",
          "type": "uint16"
        }
      ],
      "name": "SetLocalChainId",
      "type": "event"
    },
    {
      "anonymous": false,
      "inputs": [
        {
          "indexed": false,
          "internalType": "uint16",
          "name": "_dstChainId",
          "type": "uint16"
        },
        {
          "indexed": false,
          "internalType": "uint16",
          "name": "_type",
          "type": "uint16"
        },
        {
          "indexed": false,
          "internalType": "uint256",
          "name": "_minDstGas",
          "type": "uint256"
        }
      ],
      "name": "SetMinDstGas",
      "type": "event"
    },
    {
      "anonymous": false,
      "inputs": [
        {
          "indexed": false,
          "internalType": "address",
          "name": "precrime",
          "type": "address"
        }
      ],
      "name": "SetPrecrime",
      "type": "event"
    },
    {
      "anonymous": false,
      "inputs": [
        {
          "indexed": false,
          "internalType": "address",
          "name": "token",
          "type": "address"
        },
        {
          "indexed": false,
          "internalType": "bool",
          "name": "paused",
          "type": "bool"
        }
      ],
      "name": "SetTokenPause",
      "type": "event"
    },
    {
      "anonymous": false,
      "inputs": [
        {
          "indexed": false,
          "internalType": "uint16",
          "name": "_remoteChainId",
          "type": "uint16"
        },
        {
          "indexed": false,
          "internalType": "bytes",
          "name": "_path",
          "type": "bytes"
        }
      ],
      "name": "SetTrustedRemote",
      "type": "event"
    },
    {
      "anonymous": false,
      "inputs": [
        {
          "indexed": false,
          "internalType": "uint16",
          "name": "_remoteChainId",
          "type": "uint16"
        },
        {
          "indexed": false,
          "internalType": "bytes",
          "name": "_remoteAddress",
          "type": "bytes"
        }
      ],
      "name": "SetTrustedRemoteAddress",
      "type": "event"
    },
    {
      "anonymous": false,
      "inputs": [
        {
          "indexed": false,
          "internalType": "bool",
          "name": "useCustomAdapterParams",
          "type": "bool"
        }
      ],
      "name": "SetUseCustomAdapterParams",
      "type": "event"
    },
    {
      "anonymous": false,
      "inputs": [
        {
          "indexed": false,
          "internalType": "address",
          "name": "weth",
          "type": "address"
        }
      ],
      "name": "SetWETH",
      "type": "event"
    },
    {
      "anonymous": false,
      "inputs": [
        {
          "indexed": true,
          "internalType": "address",
          "name": "token",
          "type": "address"
        },
        {
          "indexed": false,
          "internalType": "address",
          "name": "to",
          "type": "address"
        },
        {
          "indexed": false,
          "internalType": "uint256",
          "name": "amountLD",
          "type": "uint256"
        }
      ],
      "name": "WithdrawFee",
      "type": "event"
    },
    {
      "anonymous": false,
      "inputs": [
        {
          "indexed": true,
          "internalType": "address",
          "name": "token",
          "type": "address"
        },
        {
          "indexed": false,
          "internalType": "address",
          "name": "to",
          "type": "address"
        },
        {
          "indexed": false,
          "internalType": "uint256",
          "name": "amountLD",
          "type": "uint256"
        }
      ],
      "name": "WithdrawTVL",
      "type": "event"
    },
    {
      "inputs": [],
      "name": "BP_DENOMINATOR",
      "outputs": [
        {
          "internalType": "uint256",
          "name": "",
          "type": "uint256"
        }
      ],
      "stateMutability": "view",
      "type": "function"
    },
    {
      "inputs": [],
      "name": "DEFAULT_PAYLOAD_SIZE_LIMIT",
      "outputs": [
        {
          "internalType": "uint256",
          "name": "",
          "type": "uint256"
        }
      ],
      "stateMutability": "view",
      "type": "function"
    },
    {
      "inputs": [],
      "name": "SHARED_DECIMALS",
      "outputs": [
        {
          "internalType": "uint8",
          "name": "",
          "type": "uint8"
        }
      ],
      "stateMutability": "view",
      "type": "function"
    },
    {
      "inputs": [
        {
          "internalType": "address",
          "name": "_token",
          "type": "address"
        }
      ],
      "name": "accruedFeeLD",
      "outputs": [
        {
          "internalType": "uint256",
          "name": "",
          "type": "uint256"
        }
      ],
      "stateMutability": "view",
      "type": "function"
    },
    {
      "inputs": [],
      "name": "aptosChainId",
      "outputs": [
        {
          "internalType": "uint16",
          "name": "",
          "type": "uint16"
        }
      ],
      "stateMutability": "view",
      "type": "function"
    },
    {
      "inputs": [],
      "name": "bridgeFeeBP",
      "outputs": [
        {
          "internalType": "uint256",
          "name": "",
          "type": "uint256"
        }
      ],
      "stateMutability": "view",
      "type": "function"
    },
    {
      "inputs": [],
      "name": "emergencyWithdrawEnabled",
      "outputs": [
        {
          "internalType": "bool",
          "name": "",
          "type": "bool"
        }
      ],
      "stateMutability": "view",
      "type": "function"
    },
    {
      "inputs": [],
      "name": "emergencyWithdrawTime",
      "outputs": [
        {
          "internalType": "uint256",
          "name": "",
          "type": "uint256"
        }
      ],
      "stateMutability": "view",
      "type": "function"
    },
    {
      "inputs": [
        {
          "internalType": "bool",
          "name": "enabled",
          "type": "bool"
        }
      ],
      "name": "enableEmergencyWithdraw",
      "outputs": [],
      "stateMutability": "nonpayable",
      "type": "function"
    },
    {
      "inputs": [
        {
          "internalType": "uint16",
          "name": "",
          "type": "uint16"
        },
        {
          "internalType": "bytes",
          "name": "",
          "type": "bytes"
        },
        {
          "internalType": "uint64",
          "name": "",
          "type": "uint64"
        }
      ],
      "name": "failedMessages",
      "outputs": [
        {
          "internalType": "bytes32",
          "name": "",
          "type": "bytes32"
        }
      ],
      "stateMutability": "view",
      "type": "function"
    },
    {
      "inputs": [
        {
          "internalType": "uint16",
          "name": "_srcChainId",
          "type": "uint16"
        },
        {
          "internalType": "bytes",
          "name": "_srcAddress",
          "type": "bytes"
        }
      ],
      "name": "forceResumeReceive",
      "outputs": [],
      "stateMutability": "nonpayable",
      "type": "function"
    },
    {
      "inputs": [
        {
          "internalType": "uint16",
          "name": "_version",
          "type": "uint16"
        },
        {
          "internalType": "uint16",
          "name": "_chainId",
          "type": "uint16"
        },
        {
          "internalType": "address",
          "name": "",
          "type": "address"
        },
        {
          "internalType": "uint256",
          "name": "_configType",
          "type": "uint256"
        }
      ],
      "name": "getConfig",
      "outputs": [
        {
          "internalType": "bytes",
          "name": "",
          "type": "bytes"
        }
      ],
      "stateMutability": "view",
      "type": "function"
    },
    {
      "inputs": [
        {
          "internalType": "uint16",
          "name": "_remoteChainId",
          "type": "uint16"
        }
      ],
      "name": "getTrustedRemoteAddress",
      "outputs": [
        {
          "internalType": "bytes",
          "name": "",
          "type": "bytes"
        }
      ],
      "stateMutability": "view",
      "type": "function"
    },
    {
      "inputs": [],
      "name": "globalPaused",
      "outputs": [
        {
          "internalType": "bool",
          "name": "",
          "type": "bool"
        }
      ],
      "stateMutability": "view",
      "type": "function"
    },
    {
      "inputs": [
        {
          "internalType": "uint16",
          "name": "_srcChainId",
          "type": "uint16"
        },
        {
          "internalType": "bytes",
          "name": "_srcAddress",
          "type": "bytes"
        }
      ],
      "name": "isTrustedRemote",
      "outputs": [
        {
          "internalType": "bool",
          "name": "",
          "type": "bool"
        }
      ],
      "stateMutability": "view",
      "type": "function"
    },
    {
      "inputs": [
        {
          "internalType": "address",
          "name": "",
          "type": "address"
        }
      ],
      "name": "ld2sdRates",
      "outputs": [
        {
          "internalType": "uint256",
          "name": "",
          "type": "uint256"
        }
      ],
      "stateMutability": "view",
      "type": "function"
    },
    {
      "inputs": [],
      "name": "lzEndpoint",
      "outputs": [
        {
          "internalType": "contract ILayerZeroEndpoint",
          "name": "",
          "type": "address"
        }
      ],
      "stateMutability": "view",
      "type": "function"
    },
    {
      "inputs": [
        {
          "internalType": "uint16",
          "name": "_srcChainId",
          "type": "uint16"
        },
        {
          "internalType": "bytes",
          "name": "_srcAddress",
          "type": "bytes"
        },
        {
          "internalType": "uint64",
          "name": "_nonce",
          "type": "uint64"
        },
        {
          "internalType": "bytes",
          "name": "_payload",
          "type": "bytes"
        }
      ],
      "name": "lzReceive",
      "outputs": [],
      "stateMutability": "nonpayable",
      "type": "function"
    },
    {
      "inputs": [
        {
          "internalType": "uint16",
          "name": "",
          "type": "uint16"
        },
        {
          "internalType": "uint16",
          "name": "",
          "type": "uint16"
        }
      ],
      "name": "minDstGasLookup",
      "outputs": [
        {
          "internalType": "uint256",
          "name": "",
          "type": "uint256"
        }
      ],
      "stateMutability": "view",
      "type": "function"
    },
    {
      "inputs": [
        {
          "internalType": "uint16",
          "name": "_srcChainId",
          "type": "uint16"
        },
        {
          "internalType": "bytes",
          "name": "_srcAddress",
          "type": "bytes"
        },
        {
          "internalType": "uint64",
          "name": "_nonce",
          "type": "uint64"
        },
        {
          "internalType": "bytes",
          "name": "_payload",
          "type": "bytes"
        }
      ],
      "name": "nonblockingLzReceive",
      "outputs": [],
      "stateMutability": "nonpayable",
      "type": "function"
    },
    {
      "inputs": [],
      "name": "owner",
      "outputs": [
        {
          "internalType": "address",
          "name": "",
          "type": "address"
        }
      ],
      "stateMutability": "view",
      "type": "function"
    },
    {
      "inputs": [
        {
          "internalType": "address",
          "name": "",
          "type": "address"
        }
      ],
      "name": "pausedTokens",
      "outputs": [
        {
          "internalType": "bool",
          "name": "",
          "type": "bool"
        }
      ],
      "stateMutability": "view",
      "type": "function"
    },
    {
      "inputs": [
        {
          "internalType": "uint16",
          "name": "",
          "type": "uint16"
        }
      ],
      "name": "payloadSizeLimitLookup",
      "outputs": [
        {
          "internalType": "uint256",
          "name": "",
          "type": "uint256"
        }
      ],
      "stateMutability": "view",
      "type": "function"
    },
    {
      "inputs": [],
      "name": "precrime",
      "outputs": [
        {
          "internalType": "address",
          "name": "",
          "type": "address"
        }
      ],
      "stateMutability": "view",
      "type": "function"
    },
    {
      "inputs": [
        {
          "components": [
            {
              "internalType": "address payable",
              "name": "refundAddress",
              "type": "address"
            },
            {
              "internalType": "address",
              "name": "zroPaymentAddress",
              "type": "address"
            }
          ],
          "internalType": "struct LzLib.CallParams",
          "name": "_callParams",
          "type": "tuple"
        },
        {
          "internalType": "bytes",
          "name": "_adapterParams",
          "type": "bytes"
        }
      ],
      "name": "quoteForSend",
      "outputs": [
        {
          "internalType": "uint256",
          "name": "nativeFee",
          "type": "uint256"
        },
        {
          "internalType": "uint256",
          "name": "zroFee",
          "type": "uint256"
        }
      ],
      "stateMutability": "view",
      "type": "function"
    },
    {
      "inputs": [
        {
          "internalType": "address",
          "name": "_token",
          "type": "address"
        }
      ],
      "name": "registerToken",
      "outputs": [],
      "stateMutability": "nonpayable",
      "type": "function"
    },
    {
      "inputs": [],
      "name": "renounceOwnership",
      "outputs": [],
      "stateMutability": "nonpayable",
      "type": "function"
    },
    {
      "inputs": [
        {
          "internalType": "uint16",
          "name": "_srcChainId",
          "type": "uint16"
        },
        {
          "internalType": "bytes",
          "name": "_srcAddress",
          "type": "bytes"
        },
        {
          "internalType": "uint64",
          "name": "_nonce",
          "type": "uint64"
        },
        {
          "internalType": "bytes",
          "name": "_payload",
          "type": "bytes"
        }
      ],
      "name": "retryMessage",
      "outputs": [],
      "stateMutability": "payable",
      "type": "function"
    },
    {
      "inputs": [
        {
          "internalType": "bytes32",
          "name": "_toAddress",
          "type": "bytes32"
        },
        {
          "internalType": "uint256",
          "name": "_amountLD",
          "type": "uint256"
        },
        {
          "components": [
            {
              "internalType": "address payable",
              "name": "refundAddress",
              "type": "address"
            },
            {
              "internalType": "address",
              "name": "zroPaymentAddress",
              "type": "address"
            }
          ],
          "internalType": "struct LzLib.CallParams",
          "name": "_callParams",
          "type": "tuple"
        },
        {
          "internalType": "bytes",
          "name": "_adapterParams",
          "type": "bytes"
        }
      ],
      "name": "sendETHToAptos",
      "outputs": [],
      "stateMutability": "payable",
      "type": "function"
    },
    {
      "inputs": [
        {
          "internalType": "address",
          "name": "_token",
          "type": "address"
        },
        {
          "internalType": "bytes32",
          "name": "_toAddress",
          "type": "bytes32"
        },
        {
          "internalType": "uint256",
          "name": "_amountLD",
          "type": "uint256"
        },
        {
          "components": [
            {
              "internalType": "address payable",
              "name": "refundAddress",
              "type": "address"
            },
            {
              "internalType": "address",
              "name": "zroPaymentAddress",
              "type": "address"
            }
          ],
          "internalType": "struct LzLib.CallParams",
          "name": "_callParams",
          "type": "tuple"
        },
        {
          "internalType": "bytes",
          "name": "_adapterParams",
          "type": "bytes"
        }
      ],
      "name": "sendToAptos",
      "outputs": [],
      "stateMutability": "payable",
      "type": "function"
    },
    {
      "inputs": [
        {
          "internalType": "uint16",
          "name": "_aptosChainId",
          "type": "uint16"
        }
      ],
      "name": "setAptosChainId",
      "outputs": [],
      "stateMutability": "nonpayable",
      "type": "function"
    },
    {
      "inputs": [
        {
          "internalType": "uint256",
          "name": "_bridgeFeeBP",
          "type": "uint256"
        }
      ],
      "name": "setBridgeFeeBP",
      "outputs": [],
      "stateMutability": "nonpayable",
      "type": "function"
    },
    {
      "inputs": [
        {
          "internalType": "uint16",
          "name": "_version",
          "type": "uint16"
        },
        {
          "internalType": "uint16",
          "name": "_chainId",
          "type": "uint16"
        },
        {
          "internalType": "uint256",
          "name": "_configType",
          "type": "uint256"
        },
        {
          "internalType": "bytes",
          "name": "_config",
          "type": "bytes"
        }
      ],
      "name": "setConfig",
      "outputs": [],
      "stateMutability": "nonpayable",
      "type": "function"
    },
    {
      "inputs": [
        {
          "internalType": "bool",
          "name": "_paused",
          "type": "bool"
        }
      ],
      "name": "setGlobalPause",
      "outputs": [],
      "stateMutability": "nonpayable",
      "type": "function"
    },
    {
      "inputs": [
        {
          "internalType": "uint16",
          "name": "_dstChainId",
          "type": "uint16"
        },
        {
          "internalType": "uint16",
          "name": "_packetType",
          "type": "uint16"
        },
        {
          "internalType": "uint256",
          "name": "_minGas",
          "type": "uint256"
        }
      ],
      "name": "setMinDstGas",
      "outputs": [],
      "stateMutability": "nonpayable",
      "type": "function"
    },
    {
      "inputs": [
        {
          "internalType": "uint16",
          "name": "_dstChainId",
          "type": "uint16"
        },
        {
          "internalType": "uint256",
          "name": "_size",
          "type": "uint256"
        }
      ],
      "name": "setPayloadSizeLimit",
      "outputs": [],
      "stateMutability": "nonpayable",
      "type": "function"
    },
    {
      "inputs": [
        {
          "internalType": "address",
          "name": "_precrime",
          "type": "address"
        }
      ],
      "name": "setPrecrime",
      "outputs": [],
      "stateMutability": "nonpayable",
      "type": "function"
    },
    {
      "inputs": [
        {
          "internalType": "uint16",
          "name": "_version",
          "type": "uint16"
        }
      ],
      "name": "setReceiveVersion",
      "outputs": [],
      "stateMutability": "nonpayable",
      "type": "function"
    },
    {
      "inputs": [
        {
          "internalType": "uint16",
          "name": "_version",
          "type": "uint16"
        }
      ],
      "name": "setSendVersion",
      "outputs": [],
      "stateMutability": "nonpayable",
      "type": "function"
    },
    {
      "inputs": [
        {
          "internalType": "address",
          "name": "_token",
          "type": "address"
        },
        {
          "internalType": "bool",
          "name": "_paused",
          "type": "bool"
        }
      ],
      "name": "setTokenPause",
      "outputs": [],
      "stateMutability": "nonpayable",
      "type": "function"
    },
    {
      "inputs": [
        {
          "internalType": "uint16",
          "name": "_remoteChainId",
          "type": "uint16"
        },
        {
          "internalType": "bytes",
          "name": "_path",
          "type": "bytes"
        }
      ],
      "name": "setTrustedRemote",
      "outputs": [],
      "stateMutability": "nonpayable",
      "type": "function"
    },
    {
      "inputs": [
        {
          "internalType": "uint16",
          "name": "_remoteChainId",
          "type": "uint16"
        },
        {
          "internalType": "bytes",
          "name": "_remoteAddress",
          "type": "bytes"
        }
      ],
      "name": "setTrustedRemoteAddress",
      "outputs": [],
      "stateMutability": "nonpayable",
      "type": "function"
    },
    {
      "inputs": [
        {
          "internalType": "bool",
          "name": "_useCustomAdapterParams",
          "type": "bool"
        }
      ],
      "name": "setUseCustomAdapterParams",
      "outputs": [],
      "stateMutability": "nonpayable",
      "type": "function"
    },
    {
      "inputs": [
        {
          "internalType": "address",
          "name": "_weth",
          "type": "address"
        }
      ],
      "name": "setWETH",
      "outputs": [],
      "stateMutability": "nonpayable",
      "type": "function"
    },
    {
      "inputs": [
        {
          "internalType": "address",
          "name": "",
          "type": "address"
        }
      ],
      "name": "supportedTokens",
      "outputs": [
        {
          "internalType": "bool",
          "name": "",
          "type": "bool"
        }
      ],
      "stateMutability": "view",
      "type": "function"
    },
    {
      "inputs": [
        {
          "internalType": "address",
          "name": "newOwner",
          "type": "address"
        }
      ],
      "name": "transferOwnership",
      "outputs": [],
      "stateMutability": "nonpayable",
      "type": "function"
    },
    {
      "inputs": [
        {
          "internalType": "uint16",
          "name": "",
          "type": "uint16"
        }
      ],
      "name": "trustedRemoteLookup",
      "outputs": [
        {
          "internalType": "bytes",
          "name": "",
          "type": "bytes"
        }
      ],
      "stateMutability": "view",
      "type": "function"
    },
    {
      "inputs": [
        {
          "internalType": "address",
          "name": "",
          "type": "address"
        }
      ],
      "name": "tvlSDs",
      "outputs": [
        {
          "internalType": "uint64",
          "name": "",
          "type": "uint64"
        }
      ],
      "stateMutability": "view",
      "type": "function"
    },
    {
      "inputs": [],
      "name": "useCustomAdapterParams",
      "outputs": [
        {
          "internalType": "bool",
          "name": "",
          "type": "bool"
        }
      ],
      "stateMutability": "view",
      "type": "function"
    },
    {
      "inputs": [],
      "name": "weth",
      "outputs": [
        {
          "internalType": "address",
          "name": "",
          "type": "address"
        }
      ],
      "stateMutability": "view",
      "type": "function"
    },
    {
      "inputs": [
        {
          "internalType": "address",
          "name": "_token",
          "type": "address"
        },
        {
          "internalType": "address",
          "name": "_to",
          "type": "address"
        }
      ],
      "name": "withdrawEmergency",
      "outputs": [],
      "stateMutability": "nonpayable",
      "type": "function"
    },
    {
      "inputs": [
        {
          "internalType": "address",
          "name": "_token",
          "type": "address"
        },
        {
          "internalType": "address",
          "name": "_to",
          "type": "address"
        },
        {
          "internalType": "uint256",
          "name": "_amountLD",
          "type": "uint256"
        }
      ],
      "name": "withdrawFee",
      "outputs": [],
      "stateMutability": "nonpayable",
      "type": "function"
    },
    {
      "inputs": [
        {
          "internalType": "address",
          "name": "_token",
          "type": "address"
        },
        {
          "internalType": "address",
          "name": "_to",
          "type": "address"
        },
        {
          "internalType": "uint64",
          "name": "_amountSD",
          "type": "uint64"
        }
      ],
      "name": "withdrawTVL",
      "outputs": [],
      "stateMutability": "nonpayable",
      "type": "function"
    },
    {
      "stateMutability": "payable",
      "type": "receive"
    }
  ],
  "transactionHash": "0xbec0b936fbad6a93a6351490a64291789c32ac09de48014412632d2dd6d2a91a",
  "args": [
    "0x6fcb97553d41516cb228ac03fdc8b9a0a9df04a1",
    108
  ],
  "numDeployments": 2,
  "solcInputHash": "c875adc7a37bbf19051269d768bd3c19",
  "bytecode": "0x60a06040523480156200001157600080fd5b5060405162004622380380620046228339810160408190526200003491620000c0565b8180620000413362000070565b6001600160a01b03166080525060016006556007805461ffff191661ffff929092169190911790555062000110565b600080546001600160a01b038381166001600160a01b0319831681178455604051919092169283917f8be0079c531659141344cd1fd0a4f28419497f9722a3daafe3b4186f6b6457e09190a35050565b60008060408385031215620000d457600080fd5b82516001600160a01b0381168114620000ec57600080fd5b602084015190925061ffff811681146200010557600080fd5b809150509250929050565b6080516144be620001646000396000818161085301528181610b2e01528181610d7801528181611092015281816111b40152818161126e01528181611ecc01528181612391015261333d01526144be6000f3fe60806040526004361061031c5760003560e01c806392cc13c5116101ab578063ca23bb4c116100f7578063e3179c3e11610095578063ed629c5c1161006f578063ed629c5c146109ff578063ee7a459614610a20578063f2fde38b14610a50578063f5ecbdbc14610a7057600080fd5b8063e3179c3e14610971578063eab45d9c146109bf578063eb8d72b7146109df57600080fd5b8063d1deba1f116100d1578063d1deba1f14610908578063d71e409e1461091b578063de9b94881461093b578063df2a5b3b1461095157600080fd5b8063ca23bb4c146108b5578063cb8d3b1f146108c8578063cbed8b9c146108e857600080fd5b8063a2f27ae011610164578063b353aaa71161013e578063b353aaa714610841578063baf3292d14610875578063c21f511414610895578063c44618341461082b57600080fd5b8063a2f27ae0146107eb578063a6c3d1651461080b578063abe685cd1461082b57600080fd5b806392cc13c51461071757806393f26a4c14610744578063950c8a741461076457806395e2c1681461078457806397167964146107a45780639f38369a146107cb57600080fd5b8063468b96681161026a57806368c4ac26116102235780637533d788116101fd5780637533d7881461068157806376a9099a146106ae5780638cfd8f5c146106c15780638da5cb5b146106f957600080fd5b806368c4ac261461061c57806369a6b3db1461064c578063715018a61461066c57600080fd5b8063468b9668146105165780635747e69f1461054b5780635b769f3c1461056c5780635b8c41e61461058c57806361a552dc146105db57806366ad5c8a146105fc57600080fd5b806310ddb137116102d75780633d8b38f6116102b15780633d8b38f6146104615780633f1f4fa4146104915780633fc8cef3146104be57806342d65a8d146104f657600080fd5b806310ddb137146103ea57806325a9f7921461040a5780632db88ecf1461043357600080fd5b80620d5900146103285780621d35671461034a57806307e0db171461036a57806309824a801461038a5780630df37483146103aa5780631095b6d7146103ca57600080fd5b3661032357005b600080fd5b34801561033457600080fd5b5061034861034336600461360e565b610a90565b005b34801561035657600080fd5b5061034861036536600461369d565b610b2b565b34801561037657600080fd5b50610348610385366004613730565b610d57565b34801561039657600080fd5b506103486103a5366004613760565b610de0565b3480156103b657600080fd5b506103486103c536600461377d565b610f8c565b3480156103d657600080fd5b506103486103e53660046137a7565b610fab565b3480156103f657600080fd5b50610348610405366004613730565b611071565b34801561041657600080fd5b5061042060085481565b6040519081526020015b60405180910390f35b34801561043f57600080fd5b5060075461044e9061ffff1681565b60405161ffff909116815260200161042a565b34801561046d57600080fd5b5061048161047c3660046137e8565b6110c9565b604051901515815260200161042a565b34801561049d57600080fd5b506104206104ac366004613730565b60036020526000908152604090205481565b3480156104ca57600080fd5b50600d546104de906001600160a01b031681565b6040516001600160a01b03909116815260200161042a565b34801561050257600080fd5b506103486105113660046137e8565b611195565b34801561052257600080fd5b50610536610531366004613852565b61121b565b6040805192835260208301919091520161042a565b34801561055757600080fd5b50600d5461048190600160b01b900460ff1681565b34801561057857600080fd5b50610348610587366004613760565b611302565b34801561059857600080fd5b506104206105a73660046138f9565b6005602090815260009384526040808520845180860184018051928152908401958401959095209452929052825290205481565b3480156105e757600080fd5b50600d5461048190600160a81b900460ff1681565b34801561060857600080fd5b5061034861061736600461369d565b61137e565b34801561062857600080fd5b50610481610637366004613760565b600a6020526000908152604090205460ff1681565b34801561065857600080fd5b506103486106673660046139a7565b61145a565b34801561067857600080fd5b506103486114af565b34801561068d57600080fd5b506106a161069c366004613730565b6114b9565b60405161042a9190613a14565b6103486106bc366004613a27565b611553565b3480156106cd57600080fd5b506104206106dc366004613a8f565b600260209081526000928352604080842090915290825290205481565b34801561070557600080fd5b506000546001600160a01b03166104de565b34801561072357600080fd5b50610420610732366004613760565b600c6020526000908152604090205481565b34801561075057600080fd5b5061034861075f366004613ac2565b61171d565b34801561077057600080fd5b506004546104de906001600160a01b031681565b34801561079057600080fd5b5061034861079f366004613afb565b611766565b3480156107b057600080fd5b506107b9600681565b60405160ff909116815260200161042a565b3480156107d757600080fd5b506106a16107e6366004613730565b61189e565b3480156107f757600080fd5b50610420610806366004613760565b6119b4565b34801561081757600080fd5b506103486108263660046137e8565b611a5a565b34801561083757600080fd5b5061042061271081565b34801561084d57600080fd5b506104de7f000000000000000000000000000000000000000000000000000000000000000081565b34801561088157600080fd5b50610348610890366004613760565b611ae3565b3480156108a157600080fd5b506103486108b0366004613730565b611b39565b6103486108c3366004613b39565b611b85565b3480156108d457600080fd5b506103486108e3366004613ba1565b611e49565b3480156108f457600080fd5b50610348610903366004613bcf565b611ead565b61034861091636600461369d565b611f42565b34801561092757600080fd5b506103486109363660046139a7565b612158565b34801561094757600080fd5b50610420600e5481565b34801561095d57600080fd5b5061034861096c366004613c20565b6121ce565b34801561097d57600080fd5b506109a761098c366004613760565b6009602052600090815260409020546001600160401b031681565b6040516001600160401b03909116815260200161042a565b3480156109cb57600080fd5b506103486109da3660046139a7565b612238565b3480156109eb57600080fd5b506103486109fa3660046137e8565b61228d565b348015610a0b57600080fd5b50600d5461048190600160a01b900460ff1681565b348015610a2c57600080fd5b50610481610a3b366004613760565b600b6020526000908152604090205460ff1681565b348015610a5c57600080fd5b50610348610a6b366004613760565b6122e7565b348015610a7c57600080fd5b506106a1610a8b366004613c5c565b612360565b610a98612413565b612710811115610aef5760405162461bcd60e51b815260206004820152601e60248201527f546f6b656e4272696467653a2062726964676520666565203e2031303025000060448201526064015b60405180910390fd5b60088190556040518181527f9a749c8193bfd56b2b2a05c0bd18fbb0f69801a3fd6576c40b90537fd0fc3854906020015b60405180910390a150565b337f00000000000000000000000000000000000000000000000000000000000000006001600160a01b031614610ba35760405162461bcd60e51b815260206004820152601e60248201527f4c7a4170703a20696e76616c696420656e64706f696e742063616c6c657200006044820152606401610ae6565b61ffff861660009081526001602052604081208054610bc190613ca9565b80601f0160208091040260200160405190810160405280929190818152602001828054610bed90613ca9565b8015610c3a5780601f10610c0f57610100808354040283529160200191610c3a565b820191906000526020600020905b815481529060010190602001808311610c1d57829003601f168201915b50505050509050805186869050148015610c55575060008151115b8015610c7d575080516020820120604051610c739088908890613cdd565b6040518091039020145b610cd85760405162461bcd60e51b815260206004820152602660248201527f4c7a4170703a20696e76616c696420736f757263652073656e64696e6720636f6044820152651b9d1c9858dd60d21b6064820152608401610ae6565b610d4e8787878080601f01602080910402602001604051908101604052809392919081815260200183838082843760009201919091525050604080516020601f8a018190048102820181019092528881528a93509150889088908190840183828082843760009201919091525061246d92505050565b50505050505050565b610d5f612413565b6040516307e0db1760e01b815261ffff821660048201527f00000000000000000000000000000000000000000000000000000000000000006001600160a01b0316906307e0db17906024015b600060405180830381600087803b158015610dc557600080fd5b505af1158015610dd9573d6000803e3d6000fd5b5050505050565b610de8612413565b6001600160a01b038116610e0e5760405162461bcd60e51b8152600401610ae690613ced565b6001600160a01b0381166000908152600a602052604090205460ff1615610e855760405162461bcd60e51b815260206004820152602560248201527f546f6b656e4272696467653a20746f6b656e20616c72656164792072656769736044820152641d195c995960da1b6064820152608401610ae6565b6000610e90826124e6565b9050600660ff82161015610eff5760405162461bcd60e51b815260206004820152603060248201527f546f6b656e4272696467653a20646563696d616c73206d757374206265203e3d60448201526f205348415245445f444543494d414c5360801b6064820152608401610ae6565b6001600160a01b0382166000908152600a60205260409020805460ff19166001179055610f2d600682613d45565b610f3890600a613e42565b6001600160a01b0383166000818152600c602090815260409182902093909355519081527ff7fe8023cb2e36bde1d59a88ac5763a8c11be6d25e6819f71bb7e23e5bf0dc1691015b60405180910390a15050565b610f94612413565b61ffff909116600090815260036020526040902055565b610fb3612413565b6000610fbe846119b4565b9050808211156110105760405162461bcd60e51b815260206004820152601b60248201527f546f6b656e4272696467653a20666565206e6f7420656e6f75676800000000006044820152606401610ae6565b6110246001600160a01b03851684846125e4565b604080516001600160a01b038581168252602082018590528616917ff15a0a3784dea9b4fe33bc98e2450745e262d310237b2868ea8ef56967ff3ecb91015b60405180910390a250505050565b611079612413565b6040516310ddb13760e01b815261ffff821660048201527f00000000000000000000000000000000000000000000000000000000000000006001600160a01b0316906310ddb13790602401610dab565b61ffff8316600090815260016020526040812080548291906110ea90613ca9565b80601f016020809104026020016040519081016040528092919081815260200182805461111690613ca9565b80156111635780601f1061113857610100808354040283529160200191611163565b820191906000526020600020905b81548152906001019060200180831161114657829003601f168201915b50505050509050838360405161117a929190613cdd565b60405180910390208180519060200120149150509392505050565b61119d612413565b6040516342d65a8d60e01b81526001600160a01b037f000000000000000000000000000000000000000000000000000000000000000016906342d65a8d906111ed90869086908690600401613e7a565b600060405180830381600087803b15801561120757600080fd5b505af1158015610d4e573d6000803e3d6000fd5b600080611228848461263b565b60006112358180806126f7565b905060008061124a6040890160208a01613760565b60075460405163040a7bb160e41b81526001600160a01b03928316939093141593507f0000000000000000000000000000000000000000000000000000000000000000909116916340a7bb10916112b49161ffff909116903090879087908d908d90600401613e98565b6040805180830381865afa1580156112d0573d6000803e3d6000fd5b505050506040513d601f19601f820116820180604052508101906112f49190613eee565b935093505050935093915050565b61130a612413565b6001600160a01b0381166113305760405162461bcd60e51b8152600401610ae690613ced565b600d80546001600160a01b0319166001600160a01b0383169081179091556040519081527fe390bcec6614d6b1f8ae47a4d9d46531ce328e3d293ecd6ddd015cb01eff030090602001610b20565b3330146113dc5760405162461bcd60e51b815260206004820152602660248201527f4e6f6e626c6f636b696e674c7a4170703a2063616c6c6572206d7573742062656044820152650204c7a4170760d41b6064820152608401610ae6565b6114528686868080601f01602080910402602001604051908101604052809392919081815260200183838082843760009201919091525050604080516020601f89018190048102820181019092528781528993509150879087908190840183828082843760009201919091525061274192505050565b505050505050565b611462612413565b600d8054821515600160a81b0260ff60a81b199091161790556040517f5362d4bd13945e8d116b90d83a7050fa61ceb02bb79bfae783377adb46916d9490610b2090831515815260200190565b6114b7612413565b565b600160205260009081526040902080546114d290613ca9565b80601f01602080910402602001604051908101604052809291908181526020018280546114fe90613ca9565b801561154b5780601f106115205761010080835404028352916020019161154b565b820191906000526020600020905b81548152906001019060200180831161152e57829003601f168201915b505050505081565b600d548690600160a81b900460ff1615801561158857506001600160a01b0381166000908152600b602052604090205460ff16155b6115a45760405162461bcd60e51b8152600401610ae690613f12565b6115ac612a39565b6001600160a01b0387166000908152600a602052604090205460ff166115e45760405162461bcd60e51b8152600401610ae690613f3f565b60006115f08887612a92565b90506000816001600160401b0316116116605760405162461bcd60e51b815260206004820152602c60248201527f546f6b656e4272696467653a20616d6f756e745344206d75737420626520677260448201526b06561746572207468616e20360a41b6064820152608401610ae6565b6001600160a01b038816600090815260096020526040812080548392906116919084906001600160401b0316613f82565b92506101000a8154816001600160401b0302191690836001600160401b031602179055506116c488888388888834612b19565b86336001600160a01b0316896001600160a01b03167fbe6ff12fec5087498d44bc85f1a83235a630944a1e2d5a7938afe810370a58678960405161170a91815260200190565b60405180910390a450610d4e6001600655565b611725612413565b61173382826103e5856119b4565b6001600160a01b03821660009081526009602052604090205461176290839083906001600160401b0316611766565b5050565b61176e612413565b600d54600160b01b900460ff1680156117895750600e544210155b6117e45760405162461bcd60e51b815260206004820152602660248201527f546f6b656e4272696467653a20656d657267656e6379207769746864726177206044820152651b1bd8dad95960d21b6064820152608401610ae6565b6001600160a01b038316600090815260096020526040812080548392906118159084906001600160401b0316613fa9565b92506101000a8154816001600160401b0302191690836001600160401b0316021790555060006118458483612ba4565b905061185b6001600160a01b03851684836125e4565b604080516001600160a01b038581168252602082018490528616917f49507695f37b729944475cf3388760a14760fef784b7ab5ca8863a5f3f8be6bd9101611063565b61ffff81166000908152600160205260408120805460609291906118c190613ca9565b80601f01602080910402602001604051908101604052809291908181526020018280546118ed90613ca9565b801561193a5780601f1061190f5761010080835404028352916020019161193a565b820191906000526020600020905b81548152906001019060200180831161191d57829003601f168201915b5050505050905080516000036119925760405162461bcd60e51b815260206004820152601d60248201527f4c7a4170703a206e6f20747275737465642070617468207265636f72640000006044820152606401610ae6565b6119ad6000601483516119a59190613fc9565b839190612bd0565b9392505050565b6001600160a01b03811660009081526009602052604081205481906119e39084906001600160401b0316612ba4565b6040516370a0823160e01b815230600482015290915081906001600160a01b038516906370a0823190602401602060405180830381865afa158015611a2c573d6000803e3d6000fd5b505050506040513d601f19601f82011682018060405250810190611a509190613fdc565b6119ad9190613fc9565b611a62612413565b818130604051602001611a7793929190613ff5565b60408051601f1981840301815291815261ffff8516600090815260016020522090611aa29082614061565b507f8c0400cfe2d1199b1a725c78960bcc2a344d869b80590d0f2bd005db15a572ce838383604051611ad693929190613e7a565b60405180910390a1505050565b611aeb612413565b600480546001600160a01b0319166001600160a01b0383169081179091556040519081527f5db758e995a17ec1ad84bdef7e8c3293a0bd6179bcce400dff5d4c3d87db726b90602001610b20565b611b41612413565b6007805461ffff191661ffff83169081179091556040519081527f6a9ea26cc7efedf0df6fd048e06f3de4be1a978bb5d440277147c76e1c0eb75a90602001610b20565b600d546001600160a01b03811690600160a81b900460ff16158015611bc357506001600160a01b0381166000908152600b602052604090205460ff16155b611bdf5760405162461bcd60e51b8152600401610ae690613f12565b611be7612a39565b600d546001600160a01b03168015801590611c1a57506001600160a01b0381166000908152600a602052604090205460ff165b611c705760405162461bcd60e51b815260206004820152602160248201527f546f6b656e4272696467653a20455448206973206e6f7420737570706f7274656044820152601960fa1b6064820152608401610ae6565b611c7a8187612cdd565b955060008611611cdf5760405162461bcd60e51b815260206004820152602a60248201527f546f6b656e4272696467653a20616d6f756e74206d75737420626520677265616044820152690746572207468616e20360b41b6064820152608401610ae6565b85341015611d2f5760405162461bcd60e51b815260206004820152601b60248201527f546f6b656e4272696467653a20666565206e6f7420656e6f75676800000000006044820152606401610ae6565b806001600160a01b031663d0e30db0876040518263ffffffff1660e01b81526004016000604051808303818588803b158015611d6a57600080fd5b505af1158015611d7e573d6000803e3d6000fd5b50505050506000611d8f8288612a92565b6001600160a01b038316600090815260096020526040812080549293508392909190611dc59084906001600160401b0316613f82565b92506101000a8154816001600160401b0302191690836001600160401b03160217905550611e038289838989898d34611dfe9190613fc9565b612b19565b604051878152889033906000907fbe6ff12fec5087498d44bc85f1a83235a630944a1e2d5a7938afe810370a58679060200160405180910390a450506114526001600655565b611e51612413565b6001600160a01b0382166000818152600b6020908152604091829020805460ff19168515159081179091558251938452908301527fb1656bd3b50ddb6b12ef259c86e9cb359952b53c4403cfb5a83e23c515a35e229101610f80565b611eb5612413565b6040516332fb62e760e21b81526001600160a01b037f0000000000000000000000000000000000000000000000000000000000000000169063cbed8b9c90611f099088908890889088908890600401614120565b600060405180830381600087803b158015611f2357600080fd5b505af1158015611f37573d6000803e3d6000fd5b505050505050505050565b61ffff86166000908152600560205260408082209051611f659088908890613cdd565b90815260408051602092819003830190206001600160401b03871660009081529252902054905080611fe55760405162461bcd60e51b815260206004820152602360248201527f4e6f6e626c6f636b696e674c7a4170703a206e6f2073746f726564206d65737360448201526261676560e81b6064820152608401610ae6565b808383604051611ff6929190613cdd565b6040518091039020146120555760405162461bcd60e51b815260206004820152602160248201527f4e6f6e626c6f636b696e674c7a4170703a20696e76616c6964207061796c6f616044820152601960fa1b6064820152608401610ae6565b61ffff871660009081526005602052604080822090516120789089908990613cdd565b90815260408051602092819003830181206001600160401b038916600090815290845282902093909355601f88018290048202830182019052868252612110918991899089908190840183828082843760009201919091525050604080516020601f8a018190048102820181019092528881528a93509150889088908190840183828082843760009201919091525061274192505050565b7fc264d91f3adc5588250e1551f547752ca0cfa8f6b530d243b9f9f4cab10ea8e5878787878560405161214795949392919061414e565b60405180910390a150505050505050565b612160612413565b600d805460ff60b01b1916600160b01b8315150217905580612183576000612190565b6121904262093a80614189565b600e81905560408051831515815260208101929092527f27a37fc51e6c5d14309bbed3a54787c8788223b5d9cd5fe10605661665dd84159101610b20565b6121d6612413565b61ffff83811660008181526002602090815260408083209487168084529482529182902085905581519283528201929092529081018290527f9d5c7c0b934da8fefa9c7760c98383778a12dfbfc0c3b3106518f43fb9508ac090606001611ad6565b612240612413565b600d8054821515600160a01b0260ff60a01b199091161790556040517f1584ad594a70cbe1e6515592e1272a987d922b097ead875069cebe8b40c004a490610b2090831515815260200190565b612295612413565b61ffff831660009081526001602052604090206122b382848361419c565b507ffa41487ad5d6728f0b19276fa1eddc16558578f5109fc39d2dc33c3230470dab838383604051611ad693929190613e7a565b6122ef612413565b6001600160a01b0381166123545760405162461bcd60e51b815260206004820152602660248201527f4f776e61626c653a206e6577206f776e657220697320746865207a65726f206160448201526564647265737360d01b6064820152608401610ae6565b61235d81612cf2565b50565b604051633d7b2f6f60e21b815261ffff808616600483015284166024820152306044820152606481018290526060907f00000000000000000000000000000000000000000000000000000000000000006001600160a01b03169063f5ecbdbc90608401600060405180830381865afa1580156123e0573d6000803e3d6000fd5b505050506040513d6000823e601f3d908101601f19168201604052612408919081019061425b565b90505b949350505050565b6000546001600160a01b031633146114b75760405162461bcd60e51b815260206004820181905260248201527f4f776e61626c653a2063616c6c6572206973206e6f7420746865206f776e65726044820152606401610ae6565b6000806124d05a60966366ad5c8a60e01b8989898960405160240161249594939291906142d1565b60408051601f198184030181529190526020810180516001600160e01b03166001600160e01b03199093169290921790915230929190612d42565b9150915081611452576114528686868685612dcc565b60408051600481526024810182526020810180516001600160e01b031663313ce56760e01b1790529051600091829182916001600160a01b0386169161252c919061430f565b600060405180830381855afa9150503d8060008114612567576040519150601f19603f3d011682016040523d82523d6000602084013e61256c565b606091505b5091509150816125d05760405162461bcd60e51b815260206004820152602960248201527f546f6b656e4272696467653a206661696c656420746f2067657420746f6b656e60448201526820646563696d616c7360b81b6064820152608401610ae6565b8080602001905181019061240b919061432b565b604080516001600160a01b038416602482015260448082018490528251808303909101815260649091019091526020810180516001600160e01b031663a9059cbb60e01b179052612636908490612e69565b505050565b600d54600160a01b900460ff1615612696576007546117629061ffff16600084848080601f01602080910402602001604051908101604052809392919081815260200183838082843760009201829052509250612f3e915050565b80156117625760405162461bcd60e51b815260206004820152602a60248201527f546f6b656e4272696467653a205f61646170746572506172616d73206d7573746044820152691031329032b6b83a3c9760b11b6064820152608401610ae6565b60408051600060208201526001600160a01b03949094166021850152604184019290925260c01b6001600160c01b0319166061830152805180830360490181526069909201905290565b60075461ffff8581169116146127a55760405162461bcd60e51b8152602060048201526024808201527f546f6b656e4272696467653a20696e76616c696420736f7572636520636861696044820152631b881a5960e21b6064820152608401610ae6565b6000806000806127b485613013565b600d5493975091955093509150600160a81b900460ff161580156127f157506001600160a01b0384166000908152600b602052604090205460ff16155b61280d5760405162461bcd60e51b8152600401610ae690613f12565b6001600160a01b0384166000908152600a602052604090205460ff166128455760405162461bcd60e51b8152600401610ae690613f3f565b6001600160a01b0384166000908152600960205260409020546001600160401b039081169083168110156128c75760405162461bcd60e51b815260206004820152602360248201527f546f6b656e4272696467653a20696e73756666696369656e74206c697175696460448201526269747960e81b6064820152608401610ae6565b6128d18382613fa9565b6001600160a01b0386166000908152600960205260408120805467ffffffffffffffff19166001600160401b0393909316929092179091556129138685612ba4565b905060006008541161292757806000612930565b6129308161314d565b50600d549091506001600160a01b03878116911614801561294e5750825b156129b057600d5461296a906001600160a01b0316868361317e565b6040518181526001600160a01b038616906000907ffd19781f43410d9594fd4c02dd1d98dbe99099cbd222d5851a6e183c468d33ca9060200160405180910390a3612a2d565b6001600160a01b038516156129c557846129c9565b61dead5b94506129df6001600160a01b03871686836125e4565b846001600160a01b0316866001600160a01b03167ffd19781f43410d9594fd4c02dd1d98dbe99099cbd222d5851a6e183c468d33ca83604051612a2491815260200190565b60405180910390a35b50505050505050505050565b600260065403612a8b5760405162461bcd60e51b815260206004820152601f60248201527f5265656e7472616e637947756172643a207265656e7472616e742063616c6c006044820152606401610ae6565b6002600655565b6001600160a01b0382166000908152600c60205260408120548190612ab79084614364565b90506001600160401b03811115612b105760405162461bcd60e51b815260206004820152601e60248201527f546f6b656e4272696467653a20616d6f756e745344206f766572666c6f7700006044820152606401610ae6565b90505b92915050565b612b23838361263b565b6000612b308888886126f7565b600754909150612b9a9061ffff1682612b4c6020890189613760565b612b5c60408a0160208b01613760565b88888080601f0160208091040260200160405190810160405280939291908181526020018383808284376000920191909152508a9250613214915050565b5050505050505050565b6001600160a01b0382166000908152600c6020526040812054612b10906001600160401b038416614386565b606081612bde81601f614189565b1015612c1d5760405162461bcd60e51b815260206004820152600e60248201526d736c6963655f6f766572666c6f7760901b6044820152606401610ae6565b612c278284614189565b84511015612c6b5760405162461bcd60e51b8152602060048201526011602482015270736c6963655f6f75744f66426f756e647360781b6044820152606401610ae6565b606082158015612c8a5760405191506000825260208201604052612cd4565b6040519150601f8416801560200281840101858101878315602002848b0101015b81831015612cc3578051835260209283019201612cab565b5050858452601f01601f1916604052505b50949350505050565b6000612b1083612ced8585612a92565b612ba4565b600080546001600160a01b038381166001600160a01b0319831681178455604051919092169283917f8be0079c531659141344cd1fd0a4f28419497f9722a3daafe3b4186f6b6457e09190a35050565b6000606060008060008661ffff166001600160401b03811115612d6757612d6761388c565b6040519080825280601f01601f191660200182016040528015612d91576020820181803683370190505b50905060008087516020890160008d8df191503d925086831115612db3578692505b828152826000602083013e909890975095505050505050565b8180519060200120600560008761ffff1661ffff16815260200190815260200160002085604051612dfd919061430f565b9081526040805191829003602090810183206001600160401b0388166000908152915220919091557fe183f33de2837795525b4792ca4cd60535bd77c53b7e7030060bfcf5734d6b0c90612e5a908790879087908790879061439d565b60405180910390a15050505050565b6000612ebe826040518060400160405280602081526020017f5361666545524332303a206c6f772d6c6576656c2063616c6c206661696c6564815250856001600160a01b03166133b99092919063ffffffff16565b9050805160001480612edf575080806020019051810190612edf91906143fb565b6126365760405162461bcd60e51b815260206004820152602a60248201527f5361666545524332303a204552433230206f7065726174696f6e20646964206e6044820152691bdd081cdd58d8d9595960b21b6064820152608401610ae6565b6000612f49836133c8565b61ffff80871660009081526002602090815260408083209389168352929052205490915080612fba5760405162461bcd60e51b815260206004820152601a60248201527f4c7a4170703a206d696e4761734c696d6974206e6f74207365740000000000006044820152606401610ae6565b612fc48382614189565b8210156114525760405162461bcd60e51b815260206004820152601b60248201527f4c7a4170703a20676173206c696d697420697320746f6f206c6f7700000000006044820152606401610ae6565b6000806000808451604a146130765760405162461bcd60e51b815260206004820152602360248201527f546f6b656e4272696467653a20696e76616c6964207061796c6f6164206c656e6044820152620cee8d60eb1b6064820152608401610ae6565b60008560008151811061308b5761308b614418565b016020015160f81c60018111156130a4576130a461434e565b905060018160018111156130ba576130ba61434e565b146131075760405162461bcd60e51b815260206004820181905260248201527f546f6b656e4272696467653a20756e6b6e6f776e207061636b657420747970656044820152606401610ae6565b6021860151945060418601519350604986015192508560498151811061312f5761312f614418565b602001015160f81c60f81b60f81c60ff166001149150509193509193565b600080612710600854846131619190614386565b61316b9190614364565b90506131778184613fc9565b9150915091565b604051632e1a7d4d60e01b8152600481018290526001600160a01b03841690632e1a7d4d90602401600060405180830381600087803b1580156131c057600080fd5b505af11580156131d4573d6000803e3d6000fd5b50506040516001600160a01b038516925083156108fc02915083906000818181858888f1935050505015801561320e573d6000803e3d6000fd5b50505050565b61ffff86166000908152600160205260408120805461323290613ca9565b80601f016020809104026020016040519081016040528092919081815260200182805461325e90613ca9565b80156132ab5780601f10613280576101008083540402835291602001916132ab565b820191906000526020600020905b81548152906001019060200180831161328e57829003601f168201915b50505050509050805160000361331c5760405162461bcd60e51b815260206004820152603060248201527f4c7a4170703a2064657374696e6174696f6e20636861696e206973206e6f742060448201526f61207472757374656420736f7572636560801b6064820152608401610ae6565b613327878751613424565b60405162c5803160e81b81526001600160a01b037f0000000000000000000000000000000000000000000000000000000000000000169063c580310090849061337e908b9086908c908c908c908c9060040161442e565b6000604051808303818588803b15801561339757600080fd5b505af11580156133ab573d6000803e3d6000fd5b505050505050505050505050565b606061240b8484600085613495565b600060228251101561341c5760405162461bcd60e51b815260206004820152601c60248201527f4c7a4170703a20696e76616c69642061646170746572506172616d73000000006044820152606401610ae6565b506022015190565b61ffff82166000908152600360205260408120549081900361344557506127105b808211156126365760405162461bcd60e51b815260206004820181905260248201527f4c7a4170703a207061796c6f61642073697a6520697320746f6f206c617267656044820152606401610ae6565b6060824710156134f65760405162461bcd60e51b815260206004820152602660248201527f416464726573733a20696e73756666696369656e742062616c616e636520666f6044820152651c8818d85b1b60d21b6064820152608401610ae6565b600080866001600160a01b03168587604051613512919061430f565b60006040518083038185875af1925050503d806000811461354f576040519150601f19603f3d011682016040523d82523d6000602084013e613554565b606091505b509150915061356587838387613570565b979650505050505050565b606083156135df5782516000036135d8576001600160a01b0385163b6135d85760405162461bcd60e51b815260206004820152601d60248201527f416464726573733a2063616c6c20746f206e6f6e2d636f6e74726163740000006044820152606401610ae6565b508161240b565b61240b83838151156135f45781518083602001fd5b8060405162461bcd60e51b8152600401610ae69190613a14565b60006020828403121561362057600080fd5b5035919050565b803561ffff8116811461363957600080fd5b919050565b60008083601f84011261365057600080fd5b5081356001600160401b0381111561366757600080fd5b60208301915083602082850101111561367f57600080fd5b9250929050565b80356001600160401b038116811461363957600080fd5b600080600080600080608087890312156136b657600080fd5b6136bf87613627565b955060208701356001600160401b03808211156136db57600080fd5b6136e78a838b0161363e565b90975095508591506136fb60408a01613686565b9450606089013591508082111561371157600080fd5b5061371e89828a0161363e565b979a9699509497509295939492505050565b60006020828403121561374257600080fd5b612b1082613627565b6001600160a01b038116811461235d57600080fd5b60006020828403121561377257600080fd5b8135612b108161374b565b6000806040838503121561379057600080fd5b61379983613627565b946020939093013593505050565b6000806000606084860312156137bc57600080fd5b83356137c78161374b565b925060208401356137d78161374b565b929592945050506040919091013590565b6000806000604084860312156137fd57600080fd5b61380684613627565b925060208401356001600160401b0381111561382157600080fd5b61382d8682870161363e565b9497909650939450505050565b60006040828403121561384c57600080fd5b50919050565b60008060006060848603121561386757600080fd5b613871858561383a565b925060408401356001600160401b0381111561382157600080fd5b634e487b7160e01b600052604160045260246000fd5b604051601f8201601f191681016001600160401b03811182821017156138ca576138ca61388c565b604052919050565b60006001600160401b038211156138eb576138eb61388c565b50601f01601f191660200190565b60008060006060848603121561390e57600080fd5b61391784613627565b925060208401356001600160401b0381111561393257600080fd5b8401601f8101861361394357600080fd5b8035613956613951826138d2565b6138a2565b81815287602083850101111561396b57600080fd5b8160208401602083013760006020838301015280945050505061399060408501613686565b90509250925092565b801515811461235d57600080fd5b6000602082840312156139b957600080fd5b8135612b1081613999565b60005b838110156139df5781810151838201526020016139c7565b50506000910152565b60008151808452613a008160208601602086016139c4565b601f01601f19169290920160200192915050565b602081526000612b1060208301846139e8565b60008060008060008060c08789031215613a4057600080fd5b8635613a4b8161374b565b95506020870135945060408701359350613a68886060890161383a565b925060a08701356001600160401b03811115613a8357600080fd5b61371e89828a0161363e565b60008060408385031215613aa257600080fd5b613aab83613627565b9150613ab960208401613627565b90509250929050565b60008060408385031215613ad557600080fd5b8235613ae08161374b565b91506020830135613af08161374b565b809150509250929050565b600080600060608486031215613b1057600080fd5b8335613b1b8161374b565b92506020840135613b2b8161374b565b915061399060408501613686565b600080600080600060a08688031215613b5157600080fd5b8535945060208601359350613b69876040880161383a565b925060808601356001600160401b03811115613b8457600080fd5b613b908882890161363e565b969995985093965092949392505050565b60008060408385031215613bb457600080fd5b8235613bbf8161374b565b91506020830135613af081613999565b600080600080600060808688031215613be757600080fd5b613bf086613627565b9450613bfe60208701613627565b93506040860135925060608601356001600160401b03811115613b8457600080fd5b600080600060608486031215613c3557600080fd5b613c3e84613627565b9250613c4c60208501613627565b9150604084013590509250925092565b60008060008060808587031215613c7257600080fd5b613c7b85613627565b9350613c8960208601613627565b92506040850135613c998161374b565b9396929550929360600135925050565b600181811c90821680613cbd57607f821691505b60208210810361384c57634e487b7160e01b600052602260045260246000fd5b8183823760009101908152919050565b60208082526022908201527f546f6b656e4272696467653a20696e76616c696420746f6b656e206164647265604082015261737360f01b606082015260800190565b634e487b7160e01b600052601160045260246000fd5b60ff8281168282160390811115612b1357612b13613d2f565b600181815b80851115613d99578160001904821115613d7f57613d7f613d2f565b80851615613d8c57918102915b93841c9390800290613d63565b509250929050565b600082613db057506001612b13565b81613dbd57506000612b13565b8160018114613dd35760028114613ddd57613df9565b6001915050612b13565b60ff841115613dee57613dee613d2f565b50506001821b612b13565b5060208310610133831016604e8410600b8410161715613e1c575081810a612b13565b613e268383613d5e565b8060001904821115613e3a57613e3a613d2f565b029392505050565b6000612b1060ff841683613da1565b81835281816020850137506000828201602090810191909152601f909101601f19169091010190565b61ffff84168152604060208201526000612408604083018486613e51565b61ffff871681526001600160a01b038616602082015260a060408201819052600090613ec6908301876139e8565b85151560608401528281036080840152613ee1818587613e51565b9998505050505050505050565b60008060408385031215613f0157600080fd5b505080516020909101519092909150565b602080825260139082015272151bdad95b909c9a5919d94e881c185d5cd959606a1b604082015260600190565b60208082526023908201527f546f6b656e4272696467653a20746f6b656e206973206e6f7420737570706f726040820152621d195960ea1b606082015260800190565b6001600160401b03818116838216019080821115613fa257613fa2613d2f565b5092915050565b6001600160401b03828116828216039080821115613fa257613fa2613d2f565b81810381811115612b1357612b13613d2f565b600060208284031215613fee57600080fd5b5051919050565b8284823760609190911b6bffffffffffffffffffffffff19169101908152601401919050565b601f82111561263657600081815260208120601f850160051c810160208610156140425750805b601f850160051c820191505b818110156114525782815560010161404e565b81516001600160401b0381111561407a5761407a61388c565b61408e816140888454613ca9565b8461401b565b602080601f8311600181146140c357600084156140ab5750858301515b600019600386901b1c1916600185901b178555611452565b600085815260208120601f198616915b828110156140f2578886015182559484019460019091019084016140d3565b50858210156141105787850151600019600388901b60f8161c191681555b5050505050600190811b01905550565b600061ffff808816835280871660208401525084604083015260806060830152613565608083018486613e51565b61ffff8616815260806020820152600061416c608083018688613e51565b6001600160401b0394909416604083015250606001529392505050565b80820180821115612b1357612b13613d2f565b6001600160401b038311156141b3576141b361388c565b6141c7836141c18354613ca9565b8361401b565b6000601f8411600181146141fb57600085156141e35750838201355b600019600387901b1c1916600186901b178355610dd9565b600083815260209020601f19861690835b8281101561422c578685013582556020948501946001909201910161420c565b50868210156142495760001960f88860031b161c19848701351681555b505060018560011b0183555050505050565b60006020828403121561426d57600080fd5b81516001600160401b0381111561428357600080fd5b8201601f8101841361429457600080fd5b80516142a2613951826138d2565b8181528560208385010111156142b757600080fd5b6142c88260208301602086016139c4565b95945050505050565b61ffff851681526080602082015260006142ee60808301866139e8565b6001600160401b0385166040840152828103606084015261356581856139e8565b600082516143218184602087016139c4565b9190910192915050565b60006020828403121561433d57600080fd5b815160ff81168114612b1057600080fd5b634e487b7160e01b600052602160045260246000fd5b60008261438157634e487b7160e01b600052601260045260246000fd5b500490565b8082028115828204841417612b1357612b13613d2f565b61ffff8616815260a0602082015260006143ba60a08301876139e8565b6001600160401b038616604084015282810360608401526143db81866139e8565b905082810360808401526143ef81856139e8565b98975050505050505050565b60006020828403121561440d57600080fd5b8151612b1081613999565b634e487b7160e01b600052603260045260246000fd5b61ffff8716815260c06020820152600061444b60c08301886139e8565b828103604084015261445d81886139e8565b6001600160a01b0387811660608601528616608085015283810360a08501529050613ee181856139e856fea2646970667358221220606fdcce0bc67f441e9e15a027fb406ebeb902c69dcb264e0e32ee597975402f64736f6c63430008140033",
  "devdoc": {
    "kind": "dev",
    "methods": {
      "owner()": {
        "details": "Returns the address of the current owner."
      },
      "renounceOwnership()": {
        "details": "Leaves the contract without owner. It will not be possible to call `onlyOwner` functions. Can only be called by the current owner. NOTE: Renouncing ownership will leave the contract without an owner, thereby disabling any functionality that is only available to the owner."
      },
      "transferOwnership(address)": {
        "details": "Transfers ownership of the contract to a new account (`newOwner`). Can only be called by the current owner."
      }
    },
    "version": 1
  },
  "userdoc": {
    "kind": "user",
    "methods": {},
    "version": 1
  },
  "storageLayout": {
    "storage": [
      {
        "astId": 1635,
        "contract": "contracts/TokenBridge.sol:TokenBridge",
        "label": "_owner",
        "offset": 0,
        "slot": "0",
        "type": "t_address"
      },
      {
        "astId": 455,
        "contract": "contracts/TokenBridge.sol:TokenBridge",
        "label": "trustedRemoteLookup",
        "offset": 0,
        "slot": "1",
        "type": "t_mapping(t_uint16,t_bytes_storage)"
      },
      {
        "astId": 461,
        "contract": "contracts/TokenBridge.sol:TokenBridge",
        "label": "minDstGasLookup",
        "offset": 0,
        "slot": "2",
        "type": "t_mapping(t_uint16,t_mapping(t_uint16,t_uint256))"
      },
      {
        "astId": 465,
        "contract": "contracts/TokenBridge.sol:TokenBridge",
        "label": "payloadSizeLimitLookup",
        "offset": 0,
        "slot": "3",
        "type": "t_mapping(t_uint16,t_uint256)"
      },
      {
        "astId": 467,
        "contract": "contracts/TokenBridge.sol:TokenBridge",
        "label": "precrime",
        "offset": 0,
        "slot": "4",
        "type": "t_address"
      },
      {
        "astId": 997,
        "contract": "contracts/TokenBridge.sol:TokenBridge",
        "label": "failedMessages",
        "offset": 0,
        "slot": "5",
        "type": "t_mapping(t_uint16,t_mapping(t_bytes_memory_ptr,t_mapping(t_uint64,t_bytes32)))"
      },
      {
        "astId": 1751,
        "contract": "contracts/TokenBridge.sol:TokenBridge",
        "label": "_status",
        "offset": 0,
        "slot": "6",
        "type": "t_uint256"
      },
      {
        "astId": 2681,
        "contract": "contracts/TokenBridge.sol:TokenBridge",
        "label": "aptosChainId",
        "offset": 0,
        "slot": "7",
        "type": "t_uint16"
      },
      {
        "astId": 2683,
        "contract": "contracts/TokenBridge.sol:TokenBridge",
        "label": "bridgeFeeBP",
        "offset": 0,
        "slot": "8",
        "type": "t_uint256"
      },
      {
        "astId": 2687,
        "contract": "contracts/TokenBridge.sol:TokenBridge",
        "label": "tvlSDs",
        "offset": 0,
        "slot": "9",
        "type": "t_mapping(t_address,t_uint64)"
      },
      {
        "astId": 2691,
        "contract": "contracts/TokenBridge.sol:TokenBridge",
        "label": "supportedTokens",
        "offset": 0,
        "slot": "10",
        "type": "t_mapping(t_address,t_bool)"
      },
      {
        "astId": 2695,
        "contract": "contracts/TokenBridge.sol:TokenBridge",
        "label": "pausedTokens",
        "offset": 0,
        "slot": "11",
        "type": "t_mapping(t_address,t_bool)"
      },
      {
        "astId": 2699,
        "contract": "contracts/TokenBridge.sol:TokenBridge",
        "label": "ld2sdRates",
        "offset": 0,
        "slot": "12",
        "type": "t_mapping(t_address,t_uint256)"
      },
      {
        "astId": 2701,
        "contract": "contracts/TokenBridge.sol:TokenBridge",
        "label": "weth",
        "offset": 0,
        "slot": "13",
        "type": "t_address"
      },
      {
        "astId": 2703,
        "contract": "contracts/TokenBridge.sol:TokenBridge",
        "label": "useCustomAdapterParams",
        "offset": 20,
        "slot": "13",
        "type": "t_bool"
      },
      {
        "astId": 2705,
        "contract": "contracts/TokenBridge.sol:TokenBridge",
        "label": "globalPaused",
        "offset": 21,
        "slot": "13",
        "type": "t_bool"
      },
      {
        "astId": 2707,
        "contract": "contracts/TokenBridge.sol:TokenBridge",
        "label": "emergencyWithdrawEnabled",
        "offset": 22,
        "slot": "13",
        "type": "t_bool"
      },
      {
        "astId": 2709,
        "contract": "contracts/TokenBridge.sol:TokenBridge",
        "label": "emergencyWithdrawTime",
        "offset": 0,
        "slot": "14",
        "type": "t_uint256"
      }
    ],
    "types": {
      "t_address": {
        "encoding": "inplace",
        "label": "address",
        "numberOfBytes": "20"
      },
      "t_bool": {
        "encoding": "inplace",
        "label": "bool",
        "numberOfBytes": "1"
      },
      "t_bytes32": {
        "encoding": "inplace",
        "label": "bytes32",
        "numberOfBytes": "32"
      },
      "t_bytes_memory_ptr": {
        "encoding": "bytes",
        "label": "bytes",
        "numberOfBytes": "32"
      },
      "t_bytes_storage": {
        "encoding": "bytes",
        "label": "bytes",
        "numberOfBytes": "32"
      },
      "t_mapping(t_address,t_bool)": {
        "encoding": "mapping",
        "key": "t_address",
        "label": "mapping(address => bool)",
        "numberOfBytes": "32",
        "value": "t_bool"
      },
      "t_mapping(t_address,t_uint256)": {
        "encoding": "mapping",
        "key": "t_address",
        "label": "mapping(address => uint256)",
        "numberOfBytes": "32",
        "value": "t_uint256"
      },
      "t_mapping(t_address,t_uint64)": {
        "encoding": "mapping",
        "key": "t_address",
        "label": "mapping(address => uint64)",
        "numberOfBytes": "32",
        "value": "t_uint64"
      },
      "t_mapping(t_bytes_memory_ptr,t_mapping(t_uint64,t_bytes32))": {
        "encoding": "mapping",
        "key": "t_bytes_memory_ptr",
        "label": "mapping(bytes => mapping(uint64 => bytes32))",
        "numberOfBytes": "32",
        "value": "t_mapping(t_uint64,t_bytes32)"
      },
      "t_mapping(t_uint16,t_bytes_storage)": {
        "encoding": "mapping",
        "key": "t_uint16",
        "label": "mapping(uint16 => bytes)",
        "numberOfBytes": "32",
        "value": "t_bytes_storage"
      },
      "t_mapping(t_uint16,t_mapping(t_bytes_memory_ptr,t_mapping(t_uint64,t_bytes32)))": {
        "encoding": "mapping",
        "key": "t_uint16",
        "label": "mapping(uint16 => mapping(bytes => mapping(uint64 => bytes32)))",
        "numberOfBytes": "32",
        "value": "t_mapping(t_bytes_memory_ptr,t_mapping(t_uint64,t_bytes32))"
      },
      "t_mapping(t_uint16,t_mapping(t_uint16,t_uint256))": {
        "encoding": "mapping",
        "key": "t_uint16",
        "label": "mapping(uint16 => mapping(uint16 => uint256))",
        "numberOfBytes": "32",
        "value": "t_mapping(t_uint16,t_uint256)"
      },
      "t_mapping(t_uint16,t_uint256)": {
        "encoding": "mapping",
        "key": "t_uint16",
        "label": "mapping(uint16 => uint256)",
        "numberOfBytes": "32",
        "value": "t_uint256"
      },
      "t_mapping(t_uint64,t_bytes32)": {
        "encoding": "mapping",
        "key": "t_uint64",
        "label": "mapping(uint64 => bytes32)",
        "numberOfBytes": "32",
        "value": "t_bytes32"
      },
      "t_uint16": {
        "encoding": "inplace",
        "label": "uint16",
        "numberOfBytes": "2"
      },
      "t_uint256": {
        "encoding": "inplace",
        "label": "uint256",
        "numberOfBytes": "32"
      },
      "t_uint64": {
        "encoding": "inplace",
        "label": "uint64",
        "numberOfBytes": "8"
      }
    }
  }
}